:100000000C94B5000C94D2000C94D2000C94D20045
:100010000C94D2000C94D2000C94D2000C94D20018
:100020000C94D2000C94D2000C94D2000C94D20008
:100030000C94D2000C94D2000C94D2000C94D200F8
:100040000C94D2000C94D2000C94D2000C94D200E8
:100050000C94D2000C94D2000C94D2000C94D200D8
:100060000C94D2000C94D2006E616E00696E660032
:1000700000407A10F35A00A0724E18090010A5D45F
:10008000E80000E87648170000E40B54020000CABC
:100090009A3B000000E1F505000080969800000002
:1000A00040420F000000A086010000001027000061
:1000B0000000E803000000006400000000000A00E7
:1000C000000000000100000000002C76D888DC67EA
:1000D0004F0823DFC1DFAE59E1B1B796E5E3E45342
:1000E000C63AE651997696E8E6C28426EB898C9B5F
:1000F00062ED407C6FFCEFBC9C9F40F2BAA56FA5FF
:10010000F490055A2AF75C936B6CF9676DC11BFC80
:10011000E0E40D47FEF520E6B500D0ED902E03009B
:10012000943577050080841E080000204E0A0000E8
:1001300000C80C333333330F986E12831141EF8DA7
:100140002114893BE65516CFFEE6DB18D1844B38E7
:100150001BF77C1D901DA4BBE424203284725E2218
:100160008100C9F124ECA1E53D2711241FBECFEF8A
:10017000D8E0DEBFCDBF21E0AAE1B1E001C01D9211
:10018000A032B207E1F711E0A0E0B1E0E8E5FDE060
:1001900002C005900D92AA31B107D9F70E94470419
:1001A0000C94AA060C940000CF93C82F8A3051F00B
:1001B0008091C00085FFFCCFC093C60090E080E036
:1001C000CF9108958DE00E94D400F2CFAFE0B0E06F
:1001D000ECEEF0E00C94B6046C011B015A01FC013A
:1001E00017821682838181FF48C39E012F5F3F4F94
:1001F0004901F6019381F10193FD859193FF81916E
:100200001F01882309F4E7C2853239F493FD8591F3
:1002100093FF81911F01853239F4B60190E00E946D
:10022000DB0535015301E5CFF12C512C00E0003204
:1002300038F48B3209F190F48032F9F0833209F10D
:1002400007FD34C020ED280F2A3020F506FF1BC023
:10025000FAE0FF9E200D1124F22E05C08D3279F0B8
:10026000803371F70160F10193FD859193FF8191D6
:100270001F018111DCCF1AC002600460F4CF086056
:10028000F2CF0061F0CF3AE0539E200D1124522EA0
:100290000062E9CF8E3221F406FD9DC20064E3CFF7
:1002A0008C3611F40068DFCF8836E9F29BEB980FAB
:1002B000933008F05FC00061805E06FD02C046E03A
:1002C000F42E102F1F73853609F05BC0106417FFE2
:1002D00061C08F2D9BE39F1508F48BE34424439466
:1002E000480E27E03501F4E06F0E711CF5016081C6
:1002F000718182819381042DA4010E94ED045C012F
:10030000F981FC87F0FF03C00DE2F3FF07C00BE2A9
:1003100011FD04C0012F047012FD00E22C852C7029
:10032000E22E09F457C00111ABC2F3E0E12CF51540
:10033000A0F483E0E52CE81A13FD08C0B60180E2C2
:1003400090E00E94DB05EA94E110F8CF002329F049
:10035000B601802F90E00E94DB053C8528E6A22EA6
:1003600020E0B22E33FD04C09CE6A92E90E0B92E09
:10037000107122C09BE9980F933008F033C10F7EB3
:100380009CCF863611F41068A2CFFF2009F49FCFCE
:10039000FA949DCFE7E02F2DEF1518F427E037E012
:1003A000F32E412C9FCF11118052B60190E00E9494
:1003B000DB058FEFA81AB80AF50184918111F3CFFC
:1003C000EE2009F42FCFB60180E290E00E94DB0519
:1003D000EA94F6CF17FF6FC04A0CFC85F4FF04C007
:1003E0008A81813309F44A9414140CF086C028E001
:1003F000241510F488E0482E85E090E017FF06C031
:10040000C501B7FE02C090E080E00196011101969F
:10041000FF2031F02F2D30E02F5F3F4F820F931FD1
:100420005816190619F014F0E52CE81A812F897076
:1004300011F4E11067C0002329F0B601802F90E08D
:100440000E94DB0513FD02C0E11063C017FF7CC0F2
:100450008501B7FE02C010E000E0C50184199109D2
:100460002C016F2D70E0EE27FF27E61BF70BFF87AF
:10047000EE870F3F100729F4B6018EE290E00E944C
:10048000DB05A016B1060CF44BC0401651060CF06B
:1004900047C0F501E01BF10BE80DF91D818101500A
:1004A00011092E853F8502171307E4F1B60190E08C
:1004B0000E94DB05DECF16FD9FCFEF2DF0E0EA15A1
:1004C000FB0534F03CEFA3163FEFB3060CF01068C9
:1004D0003296E80DF91D01C0FA94FF2019F08291BF
:1004E0008033D1F317FF88CF442443944F0CFA1480
:1004F0001B0431F02CF0FA187FCF442443947CCFB6
:10050000F12C7ACFB60180E290E00E94DB05EA94FC
:1005100090CFB60180E390E00E94DB05EA9494CF8F
:1005200080E3BDCFA016B10641F49A81963350F412
:10053000953319F43C8534FF05C0B60190E00E9464
:10054000DB053ECF81E3F9CF8A81813319F09C85A9
:100550009F7E9C87B60190E00E94DB05FF20A9F0FA
:10056000B6018EE290E00E94DB05F394F394E2E0A2
:1005700001E00E0FE80DF92DF11D8081B60190E02C
:100580000E94DB05E02F0F11F3CF85E690E014FF0A
:1005900002C085E490E0B6010E94DB05B7FC06C00E
:1005A000A114B104C1F4EC85E4FF15C0B194A19489
:1005B000B1088DE2B60190E00E94DB0580E32AE0FD
:1005C000A216B10454F4B60190E00E94DB05B60116
:1005D000C501C096B4CF8BE2EDCF8F5FFAE0AF1AC2
:1005E000B108EDCF8336C9F0833771F1833509F057
:1005F0005BC03501F2E06F0E711CF501A080B18087
:100600006F2D70E006FD02C06FEF7FEFC5010E9405
:10061000C5059D878C8700680DC0350132E0630EEB
:10062000711CF5018081898321E030E03D872C87B2
:1006300054010F7703FD06C02C853D855216130625
:1006400009F0A8F4E52C2BC0350132E0630E711CD3
:10065000F501A080B1806F2D70E006FD02C06FEF44
:100660007FEFC5010E94D0059D878C87E2CFB60140
:1006700080E290E00E94DB055A94DECFF50107FD91
:10068000859107FF81915F01B60190E00E94DB0533
:10069000E110EA948C859D8501979D878C87EC8578
:1006A000FD85EF2B59F78CCE843619F0893609F089
:1006B00074C0350107FF66C0F4E06F0E711CF501D0
:1006C0006081718182819381102F1F7697FF08C00E
:1006D00090958095709561957F4F8F4F9F4F1068D3
:1006E0002AE030E0A4010E940B06A82EA818BA2C1C
:1006F000012F16FF0AC00E7FAF1438F414FF04C098
:1007000012FD02C0012F0E7EBF2C04FF8EC0FE0121
:10071000EA0DF11D8081803309F080C0097EF02F41
:10072000F870EF2E03FD90C000FF8AC0FA2CB514BC
:1007300010F4F50CFB1804FF8DC0B60180E390E0C7
:100740000E94DB0502FF09C088E790E001FF02C0BC
:1007500088E590E0B6010E94DB05AF1408F486C07E
:10076000AA940A2D10E00F5F1F4F080D191DF80104
:1007700082918F01B60190E00E94DB058016910600
:10078000B1F71ECEF2E06F0E711CF5016081718130
:10079000072E000C880B990B97CF102F8537A9F4E3
:1007A0001F7E2AE030E0350117FF2FC0F4E06F0E06
:1007B000711CF5016081718182819381A4010E9485
:1007C0000B06A82EA8181F7792CF197F8F36D1F06D
:1007D00048F4883591F0F601868197812F96E2E101
:1007E0000C94D204803739F08837A9F714FD1460CF
:1007F00020E130E0D8CF1061F9CF04FD166020E190
:1008000032E0D1CF28E030E0CECFF2E06F0E711CA5
:10081000F5016081718190E080E0D0CF02FD02C0DF
:10082000B3947DCFB394B3947ACF802F867809F4B4
:1008300076CFF6CFB60180E290E00E94DB05B3945C
:10084000B514C0F3E12C77CFE52CEB18B51408F400
:1008500072CFF8CF802F867809F47FCF8BE201FF2B
:1008600080E207FD8DE2B60190E075CFB60180E32E
:1008700090E00E94DB05FA9470CF8FEF9FEFAECF30
:1008800024E0E12C251508F063CD84E053CD259AB2
:100890002D9880E190E09093C5008093C4008091F2
:1008A000C00082608093C0008091C1008861809305
:1008B000C10080E091E090931D0180931C0141985C
:1008C00081E680937C0087E880937A0082E08093C1
:1008D0007E0080917A00806480937A00F12C02E19E
:1008E00011E0C6E1D1E08091C00087FFFCCF80918C
:1008F000C00087FFFCCF8091C600813379F1D0F032
:100900008F3309F1803579F780917A008064809384
:100910007A0080917A0086FDFCCF809179001F9249
:100920008F93DF93CF930E9469060F900F900F90E3
:100930000F90D9CF8033B9F62D9880E191E00E94D5
:100940007F06F12CD0CF1F92FF921F930F930E942E
:1009500069060F900F900F900F90C5CF2D9A8EE0E3
:1009600091E00E947F06FF24F394BDCF2F923F9227
:100970004F925F926F927F928F929F92AF92BF92AF
:10098000CF92DF92EF92FF920F931F93CF93DF935B
:10099000CDB7DEB7CA1BDB0B0FB6F894DEBF0FBEB8
:1009A000CDBF09942A88398848885F846E847D8405
:1009B0008C849B84AA84B984C884DF80EE80FD8007
:1009C0000C811B81AA81B981CE0FD11D0FB6F8947D
:1009D000DEBF0FBECDBFED010895283008F027E03F
:1009E0003327DA01990F311D87FD9160009661056B
:1009F000710539F432602E5F3D9330E32A95E1F7BB
:100A000008959F3F30F080387105610509F03C5F23
:100A10003C5F3D93913008F08068911DDF93CF9348
:100A20001F930F93FF92EF92192F987F9695E92FBE
:100A300096959695E90FFF27E653FF4F99273327A1
:100A4000EE24FF24A701E70105900894079428F4F9
:100A5000360FE71EF81E491F511D660F771F881FAE
:100A6000991F0694A1F70590079428F4E70EF81E45
:100A7000491F561FC11D770F881F991F661F0694B7
:100A8000A1F70590079428F4F80E491F561FC71FB9
:100A9000D11D880F991F661F771F0694A1F7059037
:100AA000079420F4490F561FC71FD81F990F661FC0
:100AB000771F881F0694A9F784911095177041F04D
:100AC000D695C79557954795F794E7941A95C1F72A
:100AD000E0E7F0E068941590159135916591959156
:100AE00005907FE27395E118F10A430B560BC90B91
:100AF000D009C0F7E10CF11E431F561FC91FD01DBE
:100B00007EF4703311F48A95E6CFE894015030F00A
:100B1000080F0AF40027021708F4202F2395022F4C
:100B20007A3328F079E37D932A95E9F710C07D9315
:100B30002A9589F606949795679537951795179492
:100B4000E118F10A430B560BC90BD00998F0239515
:100B50007E9173957A3308F070E37C932013B8F795
:100B60007E9170617D9330F0839571E37D9370E3A6
:100B70002A95E1F71124EF90FF900F911F91CF91EB
:100B8000DF91992787FD90950895FC0105906150AC
:100B900070400110D8F7809590958E0F9F1F089593
:100BA000FC016150704001900110D8F7809590953C
:100BB0008E0F9F1F08950F931F93CF93DF93182FCE
:100BC000092FEB018B8181FD09C01FEF0FEF812FF2
:100BD000902FDF91CF911F910F91089582FF14C044
:100BE0002E813F818C819D81281739073CF4E88153
:100BF000F981CF0101969983888310838E819F812B
:100C000001969F838E83E3CFE885F985812F09952F
:100C1000892BA1F3DACFFA01AA27283051F120312C
:100C200081F1E8946F936E7F6E5F7F4F8F4F9F4F80
:100C3000AF4FB1E03ED0B4E03CD0670F781F891FC2
:100C40009A1FA11D680F791F8A1F911DA11D6A0F90
:100C5000711D811D911DA11D20D009F468943F9143
:100C60002AE0269F11243019305D3193DEF6CF0142
:100C70000895462F4770405D4193B3E00FD0C9F708
:100C8000F6CF462F4F70405D4A3318F0495D31FD75
:100C90004052419302D0A9F7EACFB4E0A6959795C8
:100CA000879577956795BA95C9F70097610571059E
:100CB00008959B01AC010A2E0694579547953795E8
:100CC0002795BA95C9F7620F731F841F951FA01D42
:100CD0000895B0E0A0E0EFE6F6E00C94C604AE01A3
:100CE0004B5F5F4FFA0161917191AF0180911C01DF
:100CF00090911D010E94E600E2E00C94E2040F9343
:100D00001F93CF93DF93E0911C01F0911D0123818C
:100D1000EC0110E000E021FD08C00FEF1FEF14C050
:100D20000995892B11F00FEF1FEF899160911C013C
:100D300070911D01DB011896ED91FC918111F0CFAE
:100D40008AE00995892B49F7C801DF91CF911F915E
:080D50000F910895F894FFCF04
:100D58000000000200000000D40000000000310084
:0A0D6800300025640A0025750A001A
:00000001FF
